:100000000C94F71B0C94281C0C94281C0C94281C92
:100010000C94281C0C94281C0C94281C0C94281C50
:100020000C94281C0C94281C0C94281C0C94281C40
:100030000C94281C0C94A48B0C94281C0C94281C45
:100040000C94281C0D94B8090C94281C0C94281CA2
:100050000C94281C0C94281C0C94A8780C945A8B93
:100060000C94281C0C949B380C9491380C94281CEC
:100070000C94281C0C94281C0C94281C0C94281CF0
:100080000C94281C0C94281C0C94281C0C94281CE0
:100090000C94281C0C94281C0C94281C0C94281CD0
:1000A0000C94281C0C94281C0C94281C0C94281CC0
:1000B0000C94281C0C94281C0C94281C0C94281CB0
:1000C0000C94281C0C94281C0C94281C0C94281CA0
:1000D0000C94281C0C94281C0C94281C0C94281C90
:1000E0000C94281C0D361236173621362B36A436C2
:1000F00035363D3645364F365936633672367C36A0
:10010000A436863690369A36DE44FC4235431A458C
:10011000354335433543354335433543354335431F
:10012000354335433543354335433543354335430F
:1001300035433543354335433543354335433543FF
:10014000354335431445354335433543354335430E
:10015000354335433543ED44354335433543354326
:1001600035433543354335433543354331453243D4
:1001700082F58FF5A4F5B1F5CEF5E3F5F0F501F6CE
:1001800012F62BF644F65DF676F693F6B0F6E1013C
:100190007902DB01B7011F025102110239025D022F
:1001A000ED00830249022F0247011B01A3011D013B
:1001B000AB01CF0175013B02B5010901EB00DD0187
:1001C0002302AB012301C90109020C9414450C94CC
:1001D000DA640D94CE3F0D9494230D943D1B0C9442
:1001E000A5B00C9489420C9420B70C9457980C94A9
:1001F00035430C9426AF0C94879A0C944CB70C940E
:10020000FC420C94FD8A0C940A640C948DF70C94B7
:10021000A6BA0D948E230C94B0F60D9430130C9462
:10022000C1640C94A4F50C9417360C948FF50C94BF
:10023000F0410C942BF60D9467230D946F230C94CE
:1002400022680C9453980D94A2230C941DB90C941D
:1002500081450C942FAF0C945DF60C940DB70C9463
:10026000D28C0C94D0640C94C6640C941C640C94D2
:10027000CB640C94D4B50C94C0B60C94EC5A0C948A
:10028000EF600C9463360C9471B30C94263A0D9481
:1002900078230C948AB80C94F0F50C94DD630C94DC
:1002A000278B0C940DAF0C94F63B0C948C420C9461
:1002B0001A450C94FFB80C94F43B0C94B7B80C940A
:1002C00035360C9437AF0C9416640C94C4BD0C9462
:1002D000D0630C94C8BD0C9459360C94FAAE0C94AF
:1002E0006F590C9490360C9491B70D9480230C9414
:1002F000A8B80C945DB30C940DA30C949EED0C94D3
:1003000011B90C949CB70C94C6BD0C94D5640C9494
:1003100001F60C94B1F50D948E140C94A3690C9411
:10032000233E0C94875F0C940D360C94A4360C94E9
:10033000B4510C94F85A0D9427130C945CB40C949B
:10034000F9B80C9472360D946B230C94AE650C9432
:1003500078B70D94CC120D94AF230C94CEF50D9478
:10036000EC3F0C9486360C9483BE0D948A230D9436
:10037000131B0D946E160C94C3B80C94FC5B0C9478
:10038000E2380C94DB630C94A8450D94FC120C9499
:1003900010640D94A6230C9474BE0C9444F60D9432
:1003A0007C230C94F3B50C94A7650C94B5640D9460
:1003B0003A130C94B94A0D94161B0D9498230C947F
:1003C0002B360D94301B0C944F360C947C4C0C94B3
:1003D000A7B60C9412360C94EBAF0C94E98C0C94E9
:1003E000CF630C9465B30C9459B30C94A3920C9402
:1003F000F2BB0C949A360C94178D0D9408130C9440
:10040000F83B0C94405C0C9405B90C94AE660C94CB
:10041000F9480D94AA230C942FB90C94D9A20C94EA
:1004200088420D941F1B0C94BB640C9482B80D94ED
:100430008B140C94E1B80D9408180C9469B30D94C6
:10044000191B0C94DF640D949C230C948CBE0C94AB
:100450005B980C9493F60C94BA5D0C94F23B0D945B
:1004600075230C94E0B50C9475B30C9422640C9431
:1004700029B90D942B1B0D9486230C94ED630C94D9
:10048000DE440C9423B90C94E63D0C9461B30D94B6
:1004900002130D94281B0C9499B80D9449140C94D4
:1004A0000A460D941C1B0C9421360C94FF5B0C9493
:1004B000F95B0C94ED440C9445360D94221B0C947E
:1004C000D2B80D94F6120C94C2BD0D94BA120C94CD
:1004D00033B70C94EAB80C9476F60C9479B30C9478
:1004E00007490C94FBB70C9461B80C9455B30C9469
:1004F000ED410D94101B0C94DCB70C94B35C0C9480
:100500005F5C0C94BDB70D94251B0C9417B90C942B
:100510006C980D94EA120C94008D0C94E3F50C94F5
:100520007C360D94DE120C94F9B50D9451130C9495
:10053000D9630C943D360C94D9B60C94DE4E0C94D1
:1005400031450C946DB30C9435B90C9451B30C94A3
:10055000AC630C9432430C94F2B60C94FA3B0C94BA
:10056000FFB50C9449B10C940BB90C9475ED0C9437
:10057000E4640C9482F50C9412F60C945FB74E412F
:100580004E494E495459494E46CDCCCC3D0AD7230D
:100590003C17B7D13877CC2B329595E6241FB14F55
:1005A0000A000020410000C84200401C4620BCBE9A
:1005B0004CCA1B0E5AAEC59D7400407A10F35A0007
:1005C000A0724E18090010A5D4E80000E87648177C
:1005D0000000E40B54020000CA9A3B000000E1F561
:1005E00005000080969800000040420F000000A027
:1005F0008601000000102700000000E80300000052
:10060000006400000000000A00000000000100007B
:100610000000002C76D888DC674F0823DFC1DFAEEE
:1006200059E1B1B796E5E3E453C63AE651997696B7
:10063000E8E6C28426EB898C9B62ED407C6FFCEF80
:10064000BC9C9F40F2BAA56FA5F490055A2AF75CAE
:10065000936B6CF9676DC11BFCE0E40D47FEF52060
:10066000E6B500D0ED902E03009435770500808428
:100670001E080000204E0A000000C80C333333333C
:100680000F986E12831141EF8D2114893BE65516A8
:10069000CFFEE6DB18D1844B381BF77C1D901DA4E0
:1006A000BBE424203284725E228100C9F124ECA1D3
:1006B000E53D27434F4D4D554E49434154494F4E1B
:1006C0000044525952554E004552524F5253004920
:1006D0004E464F004543484F00536C6565702E2EC3
:1006E0002E004D65736820706F696E74206F75748D
:1006F000206F662072616E67650A00436C69636BE8
:1007000020746F20526573756D652E2E2E004E6F0E
:10071000204D6F76652E00456E642066696C6520FD
:100720006C6973740A00426567696E2066696C655E
:10073000206C6973740A004E6F206D656469610AEC
:1007400000286E6F2066696C6529004375727265BA
:100750006E742066696C653A20005344207072699B
:100760006E74696E67206279746520004E6F742024
:100770005344207072696E74696E670A0025697946
:1007800020256964202569682025696D2025697305
:10079000005072696E742074696D653A20004520BE
:1007A0002553006F66660044454255473A004D3177
:1007B00031322053687574646F776E004D31313378
:1007C0002053005A394D33204F46462E00434841AE
:1007D0004D4245525F54454D504552415455524546
:1007E00000424142595354455050494E47004152EE
:1007F0004353004D4F54494F4E5F4D4F44455300B6
:10080000544845524D414C5F50524F544543544912
:100810004F4E004C4F4E475F46494C454E414D456B
:10082000004155544F5245504F52545F53445F530B
:100830005441545553005344434152440050524F85
:100840004D50545F535550504F525400454D4552F2
:1008500047454E43595F504152534552004341531F
:10086000455F4C494748545F4252494748544E45BA
:10087000535300544F47474C455F4C4947485453E6
:1008800000534F4654574152455F504F5745520011
:100890004255494C445F50455243454E54004C45E7
:1008A00056454C494E475F44415441005A5F5052AF
:1008B0004F42450052554E4F5554004155544F4CF0
:1008C0004556454C005052494E545F4A4F420050E5
:1008D000524F4752455353004155544F5245504F84
:1008E00052545F54454D5000564F4C554D4554524F
:1008F00049430042494E4152595F46494C455F5475
:1009000052414E534645520053455249414C5F585F
:100910004F4E5F584F4646004649524D574152454B
:100920005F4E414D453A4D61726C696E206D61724A
:100930006C696E2D322E302E3820284A616E2020B0
:100940003520323032312031343A34393A34342996
:1009500020534F555243455F434F44455F55524CDA
:100960003A68747470733A2F2F6769746875622ED1
:10097000636F6D2F4D61726C696E4669726D776140
:1009800072652F4D61726C696E2050524F544F4307
:100990004F4C5F56455253494F4E3A312E30204D01
:1009A000414348494E455F545950453A5A394D33B1
:1009B0002045585452554445525F434F554E543A82
:1009C0003120555549443A63656465326132662D7C
:1009D000343161322D343734382D396231322D6360
:1009E00035356336326633363766660A002F2F2078
:1009F000004D31343520533C696E6465783E206F7C
:100A00007574206F662072616E67652028302D3105
:100A1000290A00416363656C65726174696F6E3A9F
:100A200020500046523A0020466C6F773A20002052
:100A3000643A0020693A0020703A00496E76616C91
:100A400069642065787472756465720A0046696C21
:100A5000616D656E742072756E6F75742064697354
:100A600074616E636520286D6D293A200046696CBB
:100A7000616D656E742072756E6F757420004D34F3
:100A8000323120696E636F727265637420706172B7
:100A9000616D657465722075736167650A004F66E4
:100AA0006673657473204170706C6965640045728B
:100AB000723A20546F6F206661722100546F6F206C
:100AC0006661722066726F6D207265666572656E12
:100AD000636520706F696E740A00454550524F4D32
:100AE000204F4B0A00506F7765722D6C6F73732027
:100AF0007265636F766572792000446F6E65207051
:100B000072696E74696E672066696C650A004D379C
:100B100037004D333100D406CF06C806C106B306F0
:100B20004572726F722077726974696E6720746F94
:100B300020454550524F4D210A004D323930004D6D
:100B4000343130004D313132004D313038005354A2
:100B50004F505045442E20005072696E74657220CB
:100B600073746F707065642064756520746F2065A0
:100B700072726F72732E20466978207468652065E2
:100B800072726F7220616E6420757365204D393901
:100B90003920746F20726573746172742E2028542A
:100BA000656D706572617475726520697320726518
:100BB0007365742E205365742069742061667465B2
:100BC000722072657374617274696E67290A004ECF
:100BD0006F20436865636B73756D20776974682057
:100BE0006C696E65206E756D6265722C204C617348
:100BF00074204C696E653A2000636865636B737599
:100C00006D206D69736D617463682C204C61737421
:100C1000204C696E653A20004C696E65204E756DFA
:100C2000626572206973206E6F74204C617374204A
:100C30004C696E65204E756D6265722B312C204CAF
:100C4000617374204C696E653A20004D313130007B
:100C500053442072656164206572726F720A0021CC
:100C600021204B494C4C2063617573656420627987
:100C7000204B494C4C20627574746F6E2F70696EF6
:100C80000A002121204B494C4C2063617573656437
:100C900020627920746F6F206D75636820696E61C2
:100CA00063746976652074696D65202D20637572A3
:100CB00072656E7420636F6D6D616E643A200062C0
:100CC0007573793A2070617573656420666F722060
:100CD000696E7075740A00627573793A2070617577
:100CE00073656420666F7220757365720A006275A1
:100CF00073793A2070726F63657373696E670A0067
:100D00004D656469612052656D6F766564004D655F
:100D100064696120496E736572746564004D313099
:100D2000303053004D36303020543137004D3330A1
:100D30003320553120452569205325690050494409
:100D4000204175746F74756E65202A005049442DDA
:100D500044202A005049442D49202A005049442D5E
:100D600050202A005654726176204D696E00566DEF
:100D7000696E00566D6178204500566D6178205A85
:100D800000566D6178205900566D617820580041F9
:100D90006D6178204500416D6178205A00416D6198
:100DA00078205900416D6178205800412D547261BE
:100DB00076656C00412D5265747261637400416305
:100DC00063656C0056652D4A65726B00565A2D4A54
:100DD00065726B0056592D4A65726B0056582D4A44
:100DE00065726B004572723A207574663820666FC2
:100DF0006E74206E6F7420696E697469616C697AB3
:100E000065642E00000C0F00FE07022503BB017F66
:100E1000FE08FE08FE05080806000040F0C88888A5
:100E2000987810050808060000C0F8888888888827
:100E3000F80505050600012030F8302005080806F1
:100E400000002070F820202020E00509090600FF9E
:100E50002070A8A8B888887020070505070001D869
:100E60006C366CD80509090600FFF8A888888888C0
:100E700088A8F8050A0A0600FE205050505088A89D
:100E8000A8887003030306000340A040FFFFFFFF94
:100E9000FFFFFFFFFFFFFFFFFFFFFFFFFFFFFFFF62
:100EA000FFFF0000000605FF010707060200808023
:100EB0008080800080030303060105A0A0A0050632
:100EC0000606000050F85050F8500509090600FFCA
:100ED0002070A8A07028A87020050707060000C889
:100EE000C8102040989805070706000040A0A040C1
:100EF000A8906801030306020580808003090906A3
:100F000001FF204040808080404020030909060105
:100F1000FF80404020202040408005070706000059
:100F200020A8702070A8200505050600012020F8E3
:100F300020200203030601FFC040800501010600D6
:100F400003F8020202060100C0C005070706000000
:100F500008101020404080050707060000708898A0
:100F6000A8C8887003070706010040C04040404001
:100F7000E0050707060000708808102040F8050704
:100F800007060000F80810300888700507070600FB
:100F90000010305090F81010050707060000F88088
:100FA000F008088870050707060000304080F088C8
:100FB0008870050707060000F8081010202020059B
:100FC0000707060000708888708888700507070684
:100FD000000070888878081060020505060100C0CE
:100FE000C000C0C00206060601FFC0C000C04080AD
:100FF000030505060101204080402005030306008B
:1010000002F800F803050506010180402040800534
:10101000070706000070881020200020050707063B
:1010200000007088B8A8B880700507070600007037
:101030008888F8888888050707060000F048487007
:101040004848F00507070600007088808080887097
:10105000050707060000F04848484848F00507071C
:10106000060000F88080F08080F805070706000081
:10107000F88080F080808005070706000070888077
:1010800080988870050707060000888888F8888897
:1010900088030707060100E04040404040E00507A4
:1010A00007060000381010101090600507070600B2
:1010B000008890A0C0A090880507070600008080E7
:1010C00080808080F805070706000088D8A88888F7
:1010D00088880507070600008888C8A898888805BA
:1010E000070706000070888888888870050707064B
:1010F0000000F08888F080808005070706000070F7
:10110000888888A89068050707060000F08888F09E
:10111000A090880507070600007088807008887016
:10112000050707060000F8202020202020050707DB
:1011300006000088888888888870050707060000F0
:10114000888888885050200507070600008888880E
:1011500088A8A850050707060000888850205088F6
:1011600088050707060000888850202020200507F2
:1011700007060000F80810204080F803090906015E
:10118000FFE080808080808080E005070706000007
:10119000804040201010080309090601FFE02020CC
:1011A0002020202020E005030306000520508805AC
:1011B00001010600FEF80303030601058040200537
:1011C0000505060000700878887805070706000006
:1011D0008080F0888888F005050506000070808012
:1011E0008870050707060000080878888888780551
:1011F00005050600007088F08070050707060000EE
:10120000304840E04040400507070600FE708888EF
:10121000887808700507070600008080F0888888B5
:10122000880307070601004000C0404040E0040971
:10123000090601FE1000301010101090600507071D
:1012400006000080808890E0908803070706010070
:10125000C04040404040E0050505060000D0A8A879
:10126000A8A8050505060000B0C8888888050505FA
:1012700006000070888888700507070600FEF08861
:101280008888F080800507070600FE7888888878BF
:101290000808050505060000B0C880808005050522
:1012A00006000078807008F005070706000020207F
:1012B000F820202018050505060000888888986811
:1012C00005050506000088888850200505050600EC
:1012D000008888A8A8500505050600008850205001
:1012E000880507070600FE8888885020408005058D
:1012F00005060000F8102040F80309090601FF2048
:1013000040404080404040200109090602FF8080A3
:10131000808080808080800309090601FF80404032
:1013200040204040408005030306000248A890FF8B
:1013300050726F6265205A204F6666736574004173
:101340006476616E6365642053657474696E677357
:101350000053746F72652053657474696E6773000F
:101360004C6F61642053657474696E6773004661E5
:10137000646520486569676874004C6576656C2013
:10138000426564004732380A47323900436174636A
:1013900068205A204F666673657400473239204EC4
:1013A000004C6576656C20436F726E6572730055F4
:1013B0006E72657472616374205600556E72657446
:1013C000722E206D6D00486F70206D6D0052657437
:1013D0007261637420560052657472616374206D8B
:1013E0006D004175746F2D526574726163740052A3
:1013F0006573746F72652044656661756C74730003
:1014000050726568656174202420436F6E660042E7
:1014100061627973746570205A0046616E20537062
:10142000656564004E6F7A7A6C65004D61696E0087
:10143000466C6F77002568753A253032687500254F
:101440006875642025303268753A25303268750039
:1014500020202020202020001FE02010201020101D
:10146000102010202010201030300840048003008D
:101470001FE03FF03FF03FF01FE01FE03FF03FF084
:101480003FF00FC0078003003FFFF038007030FCD2
:101490003020FC102078102030102C00D02E31D0BD
:1014A0002F7BD02F7BD02E31D02C00D0203010209D
:1014B000781020FC1030FC303800703FFFF03FFF08
:1014C000F03800703186302387102787902F87D01F
:1014D0002F03D02030102078102078102030102FCB
:1014E00003D02F87D027879023871031863038008C
:1014F000703FFFF01FFFF81FFFF8041040020820A4
:10150000020820041040082080104100104100080B
:1015100020800410400000001FFFF81FFFF8330078
:10152000CC00CC1200480048120048004812004885
:10153000004813FFCFFFC810000000081FFF83FF03
:10154000F8000FC7E000000FEFE0000003EF80009D
:101550000001EF000000006C0000000000000043EC
:101560006F6E66696775726174696F6E005265733C
:10157000756D65205072696E740053746F702050E1
:1015800072696E74004261636B0053746F70004E39
:101590006F204D65646961004368616E6765204D29
:1015A00065646961004D3231005377697463682066
:1015B000506F776572204F6666004D383100436882
:1015C000616E67652046696C616D656E740041628D
:1015D0006F7574205072696E7465720054756E6513
:1015E000005061757365205072696E7400496E66B3
:1015F0006F2053637265656E00537461727420507E
:1016000072696E740043616E6E6F7420656E7465EE
:1016100072207375626469723A2000022E2E0052A5
:10162000657665727365204772616469656E7400E2
:101630002020456E6420562D746F6F6C00537461CA
:10164000727420562D746F6F6C00416374697665F7
:1016500020562D746F6F6C004D6F74696F6E004D66
:101660003834004175746F20486F6D650054656DA6
:1016700070657261747572650041425300504C414F
:101680000044697361626C652053746570706572A3
:101690007300486F6D65205A004732385A00486F12
:1016A0006D652059004732385900486F6D652058E4
:1016B000004732385800473238005072656865611B
:1016C00074202420456E6400507265686561742042
:1016D000242042656400436F6F6C646F776E005026
:1016E000726568656174202400546F74616C007DBC
:1016F00016791653657474696E67732053746F722C
:101700006564002062797465733B20637263200016
:1017100053657474696E67732053746F72656420C7
:101720002800454550524F4D206461746173697AB9
:1017300065206572726F722E0A002073746F726575
:10174000642073657474696E67732072657472695E
:1017500065766564202800202863616C63756C6180
:1017600074656429210A0020213D2000454550521E
:101770004F4D20435243206D69736D61746368203F
:101780002D202873746F726564292000496E64658A
:10179000783A200044494749504F5453204C6F61D8
:1017A0006465640A0044494749504F5453204C6FC4
:1017B0006164696E670A00204D61726C696E3D5606
:1017C0003833290A00454550524F4D2076657273D3
:1017D000696F6E206D69736D61746368202845457B
:1017E00050524F4D3D000000A0C0000020C100003D
:1017F000000000009B4300009B430000C8432042C0
:101800003A0020436F756E7420413A004531006202
:101810006564002C2073797374656D2073746F7028
:1018200070656421204865617465725F49443A209F
:1018300000544845524D414C2052554E4157415954
:1018400000546865726D616C2052756E61776179C4
:101850000048656174696E67204661696C65640063
:1018600048656174696E67206661696C6564002013
:101870002D20496E76616C69642065787472756498
:101880006572206E756D62657220210A0045727264
:101890003A204D415854454D50004D415854454D06
:1018A0005020747269676765726564004572723AA8
:1018B000204D494E54454D50004D494E54454D50D4
:1018C0002074726967676572656400202F0020428A
:1018D000403A0020403A00001000AA038000400176
:1018E00000012C01B001220140021001F0020201AE
:1018F0008003F8004004F500E004ED009005E400EA
:101900003006DD00E006D7008007D1003008CC00AB
:10191000D008C7007009C300100ABE00B00ABB009F
:10192000500BB700900CB300D00DAA00B00FA5006B
:101930005010A000101496009016900010198C0002
:10194000501A8500301C820070227800B023750088
:1019500040256E0020276900A0296400502A5F00FE
:10196000902B5A00D02C5500702D4F00E02E4800CF
:101970005031450030334100D035390060363700F2
:1019800010373300F0382D00A0392700803C1C00B0
:10199000103D1900903D1700103E1400703E1200DB
:1019A000C03E0F00003F0C00403F0800803F050094
:1019B000C03F0000F03FFBFF7C3C3E5E2B3D3F2FD5
:1019C0005B5D3B2C2A225C0002000000000000004E
:1019D0000000000000000000000000000000000007
:1019E00000000000000000000000000000000000F7
:1019F00000000000000000000007FFC3FF87018710
:101A0000FF0FFCFFFC1E01FF8007FFC3FF87018F54
:101A1000FF1FFCFFFC1E03FFC00000C600C7018CB7
:101A20000018000300618300C00001C600C7C18C1C
:101A30000018000300618300C000038600C6C18C4B
:101A40000018000301806300C000070600C6618C17
:101A50000018000301806300C0000E0600C6618C00
:101A60000018000301806300C0001C0600C6318F0F
:101A7000FE1FF803018063FFC000380600C6318FE7
:101A8000FE0FFC03018063FF8000700600C6198C06
:101A900000000C0301FFE30C0000E00600C6198CF7
:101AA00000000C0301FFE3070001C00600C60D8C17
:101AB00000000C03018063018003800600C60D8CCA
:101AC00000000C03018063018007000600C6078C3C
:101AD00000000C03018063018006000600C6078C2D
:101AE00000000C03018063018007FFC3FF86038FA2
:101AF000FF1FFC03018063018007FFC3FF8603878C
:101B0000FF1FF80301806301800000000000000057
:101B100000000000000000000000000000000000C5
:101B200000000000000000000000000000000000B5
:101B300000000000000000000000000000000000A5
:101B4000000000000000000000F0004A0110013B0E
:101B50000130012C01400127015001220170011DBB
:101B60000190011801B0011301C0010E01F001093B
:101B700001100204013002FF006002FA009002F539
:101B800000C002F0000003EB004003E6008003E128
:101B900000D003DC002004D700E004D200C005CD53
:101BA000004006C800D006C3008007BE00F008B998
:101BB000004009B400C009AF00B00AAA00B00BA5EC
:101BC00000D00CA000000E9B00C010960050129197
:101BD0000000148C00C0158700B0178200B0197D7A
:101BE00000D01B7800001E730040206E0090226918
:101BF00000F024640040275F0090295A00E02B5534
:101C000000102E500020304B0010324600E03341CF
:101C10000090353C001037370070383200A0392D65
:101C200000B03A2800A03B2300603C1E00103D1984
:101C300000903D1700103E1400703E1200C03E0F91
:101C400000003F0C00403F0800803F0500C03F00FF
:101C500000F03FFBFF2020506C616E6E6572427594
:101C60006666657242797465733A20002046726533
:101C700065204D656D6F72793A2000436F6D706914
:101C80006C65643A204A616E202035203230323152
:101C90000A00204C61737420557064617465643A65
:101CA00020323032302D31322D3039207C204175B8
:101CB00074686F723A20285A4F4E45535441522C43
:101CC0002048616C6C79290A006D61726C696E2D17
:101CD000322E302E380A004D61726C696E0020532E
:101CE0006F6674776172652052657365740A0020AF
:101CF0005761746368646F672052657365740A0086
:101D00002042726F776E206F757420526573657410
:101D10000A002045787465726E616C2052657365A7
:101D2000740A00506F77657255700A006175746FA0
:101D300025632E67004732385859004D3130303115
:101D4000006572726F722077726974696E672074B1
:101D50006F2066696C650A00446F6E65207361765A
:101D6000696E672066696C652E0A004D3239004540
:101D70006E6473746F707300255320256320256390
:101D80002025632025630020503A0020583A006542
:101D90006E6473746F7073206869743A2000456EC6
:101DA000636C6F737572650052756E6F7574204445
:101DB000697374206D6D004C6F6164206D6D00550A
:101DC0006E6C6F6164206D6D0046696C2E204469F5
:101DD000612E004520696E206D6DC2B3005072699E
:101DE0006E742041626F72746564004D323520500C
:101DF0000A4D32340050617573696E672E2E2E00C5
:101E00006F70656E0054524947474552454400661D
:101E1000696C616D656E74007A5F70726F626500E7
:101E20007A5F6D696E00795F6D696E00785F6D69CC
:101E30006E005265706F7274696E6720656E6473B0
:101E4000746F70207374617475730A004361703A23
:101E5000003F5A206F7574206F662072616E67654F
:101E60002028003F59206F7574206F662072616EC4
:101E7000676520282D003F58206F7574206F6620FD
:101E800072616E676520282D0050726F6265204F69
:101E90006666736574205800656E71756575656951
:101EA0006E672022006F6B00526573656E643A2086
:101EB0000042656420436F6F6C696E672E2E2E00A2
:101EC0004265642048656174696E672E2E2E00237A
:101ED000646566696E652044454641554C545F0013
:101EE0004B6420004B6920004B7020005049442077
:101EF0004175746F74756E652066696E6973686587
:101F000064212050757420746865206C617374209E
:101F10004B702C204B6920616E64204B6420636FF2
:101F20006E7374616E74732066726F6D2062656C7F
:101F30006F7720696E746F20436F6E666967757284
:101F40006174696F6E2E680A0050494420417574AF
:101F50006F74756E65206661696C656421207469B3
:101F60006D656F75740A000A20436C617373696351
:101F700020504944200A00204B643A2000204B693D
:101F80003A2000204B703A20002054753A2000205F
:101F90004B753A2000206D61783A2000206D696E03
:101FA0003A200020643A200020626961733A2000E0
:101FB000504944204175746F74756E652073746167
:101FC00072740A00504944204175746F74756E65CF
:101FD000206661696C6564212054656D706572616D
:101FE0007475726520746F6F20686967680A0050A5
:101FF0004944204175746F74756E650050494420E2
:102000004175746F74756E65206661696C656421D5
:1020100020426164206578747275646572206E7503
:102020006D6265720A004F6E0052756E6F75742096
:1020300053656E736F7200554E4C4F4144204649B4
:102040004C414D454E540046494C414D454E54205F
:102050004348414E474500506F776572204F757475
:10206000616765004D3630302042302054256900CC
:102070004D37303120542569004D373032205425FA
:102080006900556E6C6F616420416C6C004D373097
:1020900032004C6F61642046696C616D656E74201E
:1020A0002A00556E6C6F61642046696C616D656EC7
:1020B00074202A004368616E67652046696C616D13
:1020C000656E74202A00436F6E74696E75650050EA
:1020D00075726765206D6F726500524553554D45A9
:1020E000204F5054494F4E533A005052494E5420BD
:1020F0005041555345440020204E6F7A7A6C653A22
:10210000200052756E617761792057617463683A77
:10211000204F464600313330004245443A203130AA
:10212000306B207769746820342E376B2070756CA3
:102130006C2D75700052756E6177617920576174EE
:1021400063683A204F4E004D61782054656D7000F1
:10215000323735004D696E2054656D700045313A57
:10216000203130306B207769746820342E376B2033
:1021700070756C6C2D7570005053550047656E6519
:102180007269630050726F746F636F6C00312E3030
:10219000004261756400313135323030006874744A
:1021A00070733A2F2F7777772E616C69657870722C
:1021B0006573732E636F6D2F6974656D2F333239BC
:1021C00036353430363339362E68746D6C005A4FDC
:1021D0004E4553544152205A5249425F563600549C
:1021E0004954414E20455854525544455200426985
:1021F0006C696E656172204C6576656C696E67000E
:102200007777772E7A6F6E657374617233642E639D
:102210006F6D005A394D3300323032302D31322D4E
:102220003039006D61726C696E2D322E302E38009F
:1022300056352E342E3000546865726D6973746F94
:10224000727300426F61726420496E666F00507253
:10225000696E74657220496E666F004D31303030A2
:10226000005061726B696E672E2E2E000000576160
:10227000697420666F720066696C616D656E7420AA
:102280006368616E676500746F20737461727400B7
:102290005761697420666F720066696C616D656E66
:1022A0007420756E6C6F616400004E6F7A7A6C6595
:1022B0002068656174696E6700506C6561736520A4
:1022C000776169742E2E2E00005072657373206240
:1022D0007574746F6E00746F2068656174206E6F22
:1022E0007A7A6C650000496E736572742066696C59
:1022F000616D656E7400616E642070726573732029
:10230000627574746F6E00746F20636F6E74696EA3
:102310007565005761697420666F720066696C614B
:102320006D656E74206C6F6164000050726573732C
:1023300020427574746F6E00746F20726573756DD2
:1023400065207072696E7400005761697420666F51
:1023500072207072696E7400746F20726573756D8F
:10236000652E2E2E00005761697420666F7200661C
:10237000696C616D656E74207075726765000050E0
:10238000726F62652059204F6666736574005072E3
:102390006F62652058204F66667365740045207330
:1023A000746570732F6D6D005A2053746570732FB0
:1023B0006D6D00592053746570732F6D6D0058203A
:1023C00053746570732F6D6D00496E6974004D34E0
:1023D000323800496E697469616C697A65204545D7
:1023E00050524F4D0050726F6265204F66667365A4
:1023F000747300416363656C65726174696F6E002C
:1024000056656C6F636974790053657420486F6D0D
:1024100065204F666673657473004E65787420435B
:102420006F726E657200446F6E65004E6578740061
:10243000486F6D696E672058595A00000048420085
:10244000004842000080400202040000A04000005A
:10245000A0400000004000809D430000A043000019
:10246000C843FFFFFF5761726E696E673A20486F7D
:102470006D696E672042756D702044697669736F6F
:1024800072203C20310A00206C696D6974656420FB
:10249000746F2000204D6178200020746F6F206CD5
:1024A0006F6E6720657874727573696F6E207072D5
:1024B0006576656E7465640A005072657373206298
:1024C0007574746F6E20746F20726573756D650A14
:1024D00000507265737320627574746F6E20746F30
:1024E0002068656174206E6F7A7A6C650A004F46C9
:1024F000460A004661646520486569676874200083
:10250000426564204C6576656C696E6720004661A3
:10251000696C656420746F20656E61626C65204231
:102520006564204C6576656C696E670A00496E7655
:10253000616C6964206D6573682E0A002529002589
:102540007C00203B2043757272656E74205A002017
:102550003B20456E6400203B205374617274004739
:1025600072616469656E74204D69782000203B209B
:1025700065787472756465727300203B20486569E4
:102580006768740052616E646F6D204D6978200039
:102590004D32342053256C642054256C6400473937
:1025A000322E3920452573004731204625640047E7
:1025B00039322E39205A2573004731205A302046AF
:1025C000323030004731205825732059257320467A
:1025D00033303030004731204525642046323030DA
:1025E000004D3130362050256920532569004D318A
:1025F000303920532569004D313930205325690089
:102600004D3230302044257300473238523058590B
:10261000004739322E39204530205A300A47315A86
:102620002573004D343230205330205A3000204979
:102630006E76616C69642065787472756465722069
:102640000020496E76616C69642045207374657062
:10265000706572200020452073746570706572206B
:102660006E6F74207370656369666965640A002023
:1026700053697A653A200043616E6E6F74206F7003
:10268000656E207375626469722000534420496E40
:102690006974204661696C00534420636172642050
:1026A0006F6B0A006F70656E526F6F7420666169A0
:1026B0006C65640A00766F6C756D652E696E697461
:1026C000206661696C65640A004E6F205344206384
:1026D0006172640A004D32332025730046696C65CF
:1026E0002073656C65637465640A0046696C6520D7
:1026F0006F70656E65643A2000454E442053554224
:10270000524F5554494E450A002220706F730022E3
:1027100020706172656E743A2200535542524F55D3
:1027200054494E452043414C4C2074617267657496
:102730003A220053756263616C6C204F7665726655
:102740006C6F77004578636565646564206D6178BA
:1027500020535542524F5554494E4520646570747C
:10276000683A310A0044656C6574696F6E20666171
:10277000696C65642C2046696C653A200046696C7A
:10278000652064656C657465643A006F70656E20E1
:102790006661696C65642C2046696C653A20005757
:1027A000726974696E6720746F2066696C653A207F
:1027B00000667265736800646F696E67004E6F77BC
:1027C0002000506C6561736520526573657400501C
:1027D00052494E5445522048414C544544002553DB
:1027E0003A202553004B494C4C45442E2000507252
:1027F000696E7465722068616C7465642E206B6903
:102800006C6C28292063616C6C6564210A00656327
:10281000686F3A004572726F723A0042696C696E75
:10282000656172204C6576656C696E6720477269D8
:10283000643A0A0050726F62696E6720506F696E69
:10284000740025532025692F25690050726F626935
:102850006E67206D65736820706F696E7420004F1D
:102860006666736574206361746368656420210023
:102870006661696C2C206D616E75616C206C65768B
:10288000656C004661696C21204D6F766520646F30
:10289000776E2050726F62652E00546F20636174F2
:1028A0006368206F6666736574002028445259522D
:1028B000554E2900473239204175746F20426564B6
:1028C000204C6576656C696E67003F20284C2C5261
:1028D0002C462C4229206F7574206F6620626F751C
:1028E0006E64732E0A003F2856296572626F736505
:1028F000206C6576656C20696D706C6175736962BA
:102900006C652028302D34292E0A00426164205A3B
:102910002076616C75650A004E6F2062696C696E85
:1029200065617220677269640A00204D393220584F
:102930000020204D61783A200020204D696E3A2019
:1029400000536F667420656E6473746F70733A2001
:102950000024F4D43050C38E20C2A24017828B7062
:1029600011127A910D816CD90AA861E108C75866E5
:1029700007615143061E4B5D05C145A7041A41116D
:1029800004093D9803713931034036DB0265339108
:1029900002D4305402802E1D02632CEE01752AC52C
:1029A00001B028A001102781018F2564012B244B41
:1029B00001E0223401AC211F018D200D01801FFC9C
:1029C00000841EED00971DDF00B81CD200E61BC678
:1029D00000201BBC00641AB200B219A8000A19A09A
:1029E000006A189900D117910040178B00B5168422
:1029F0000031167E00B31579003A157300C7146FC5
:102A00000058146A00EE1366008813630025135EF5
:102A100000C7125B006C12570015125400C111510F
:102A20000070114F0021114B00D61049008D104746
:102A3000004610440002104200C00F4000800F3ECC
:102A400000420F3C00060F3B00CB0E3800930E37C0
:102A5000005C0E3500270E3400F30D3200C10D313D
:102A600000900D3000600D2E00320D2D00050D2C54
:102A700000D90C2B00AE0C2900850C29005C0C271A
:102A800000350C27000E0C2600E80B2400C40B2494
:102A900000A00B23007D0B23005A0B2100390B21D2
:102AA00000180B2000F80A1F00D90A1E00BB0A1EDE
:102AB000009D0A1D00800A1D00630A1C00470A1BB6
:102AC000002C0A1B00110A1A00F7091A00DD091967
:102AD00000C4091900AB091900920917007B0918F5
:102AE00000630917004C0916003609160020091664
:102AF000000A091500F5081500E0081400CC0814B8
:102B000000B8081400A4081400900813007D0812EF
:102B1000006B081300580812004608120034081110
:102B200000230811001208110001081100F007101D
:102B300000E0071000D0071000C0071000B0070F1A
:102B400000A107100091070E0083070F0074070F04
:102B50000065070E0057070E0049070E003B070DE2
:102B6000002E070E0020070D0013070D0006070DAD
:102B700000F9060C00ED060D00E0060C00D4060C72
:102B800000C8060C00BC060C00B0060C00A4060B26
:102B90000099060C008D060B0082060B0077060BD1
:102BA000006C060B0061060A0057060B004C060A73
:102BB0000042060A0038060A002E060A0024060A09
:102BC000001A060A001006090007060A00FD05099A
:102BD00000F4050900EB050900E2050900D9050923
:102BE00000D0050900C7050900BE050900B50508A4
:102BF00000AD050800A50509009C0508009405081E
:102C0000008C050800840508007C05080074050890
:102C1000006C050700650508005D050700560508FE
:102C2000004E050700470507004005080038050766
:102C300000310507002A050700230507001C0506CB
:102C400000160507000F0507000805060002050726
:102C500000FB040600F5040700EE040600E8040685
:102C600000E2040700DB040600D5040600CF0406DA
:102C700000C9040600C3040600BD040600B704062C
:102C800000B1040500AC040600A6040600A004057B
:102C9000009B04060095040500900406008A0405C4
:102CA0000085040500800406007A0405007504050B
:102CB00000700405006B040500660405006104054E
:102CC000005C04050057040500520405004D04058E
:102CD0000048040500430405003E0404003A0405CE
:102CE0000035040500300404002C0405002704040A
:102CF00000230405001E0404001A04040016040541
:102D000000110404000D0404000904050004040477
:102D10000000040400FC030400F8030400F40304AE
:102D200000F0030400EC030400E8030400E40304DF
:102D300000E0030400DC030400D8030400D403040F
:102D400000D0030400CC030400C8030300C5030340
:102D50000024F404D9201BC40C5C0E9804C4095F41
:102D60000265077101F405F900FB04B3004804870C
:102D700000C10369005803550003034500BE023A31
:102D8000008402310053022A002902250004022097
:102D900000E4011C00C8011900AF011700980114DC
:102DA0000084011300710110006101100051010E37
:102DB0000043010D0036010B002B010B0020010B1D
:102DC00000150109000C01090003010800FB0008BF
:102DD00000F3000800EB000700E4000600DE000638
:102DE00000D8000600D2000600CC000500C7000590
:102DF00000C2000500BD000400B9000400B50004D5
:102E000000B1000400AD000400A9000400A5000307
:102E100000A20003009F0004009B00030098000331
:102E2000009500020093000300900003008D000253
:102E3000008B00030088000200860002008400036B
:102E400000810002007F0002007D0002007B000282
:102E50000079000200770001007600020074000291
:102E60000072000100710002006F0002006D00019D
:102E7000006C0002006A00010069000200670001A6
:102E800000660001006500010064000200620001AC
:102E90000061000100600001005F0002005D0001B0
:102EA000005C0001005B0001005A000100590001B4
:102EB00000580001005700010056000100550001B4
:102EC00000540001005300000053000100520001B3
:102ED0000051000100500001004F0001004E0000B1
:102EE000004E0001004D0001004C0001004B0000AD
:102EF000004B0001004A00010049000100480000A9
:102F000000480001004700010046000000460001A3
:102F1000004500000045000100440001004300009E
:102F20000043000100420000004200010041000097
:102F30000041000100400001003F0000003F00018F
:102F4000003E0000003E0001003D0000003D000189
:102F5000003C0000003C0000003C0001003B000081
:102F6000003B0001003A0000003A00010039000077
:102F7000003900010038000000380000003800016E
:102F80000037000000370001003600000036000066
:102F9000003600010035000000350000003500015A
:102FA0000034000000340000003400010033000051
:102FB0000033000000330001003200000032000046
:102FC000003200010031000000310000003100013A
:102FD000003000000030000000300001002F000031
:102FE000002F0000002F0000002F0001002E000025
:102FF000002E0000002E0001002D0000002D00001A
:10300000002D0000002D0001002C0000002C00000D
:10301000002C0000002C0001002B0000002B000001
:10302000002B0000002B0001002A0000002A0000F5
:10303000002A0000002A00010029000000290000E9
:1030400000290000002900000029000100280000DC
:1030500000280000002800000028000000280001CF
:1030600000270000002700000027000000270000C4
:1030700000270001002600000026000000260000B6
:1030800000260000002600010025000000250000A9
:10309000002500000025000000250000002500019B
:1030A0000024000000240000002400000024000090
:1030B0000024000100230000002300000023000082
:1030C0000023000000230000002300000023000173
:1030D0000022000000220000002200000022000068
:1030E0000022000000220001002100000021000059
:1030F000002100000021000000210000002100004C
:10310000002100010020000000200000002000003D
:10311000002000000020000000200000002000002F
:1031200000200001001F0000001F0000001F000021
:10313000001F0000001F0000001F0000001F000112
:10314000001E0000001E0000001E0000001E000007
:1031500000A42C0000841E0000B0120000870A00AA
:10316000009E050000E90200007B010000BF000096
:1031700000457874727564657273002534642E2579
:1031800064206D6D004D69786572003F0043616E8B
:1031900063656C002020456E64205A3A00537461C8
:1031A0007274205A3A004379636C65204D69780047
:1031B000436F6D6D697420562D746F6F6C204D696F
:1031C0007800436F6D706F6E656E74203D00562DF4
:1031D000746F6F6C732057657265205265736574E8
:1031E0000052616E646F6D204D6978003A646973B6
:1031F00061626C65003A20656E61626C65004772C1
:10320000616469656E744D697800526573657420F8
:10321000562D746F6F6C7300205A3A200020593A73
:10322000200042656420583A20005072696E742074
:103230005061757365640050726F62696E672046F5
:1032400061696C65640A0050726F62696E6720463E
:1032500061696C656400486F6D6520257325732571
:103260007320466972737400496E736572742066C8
:10327000696C616D656E7420616E64207072657337
:103280007320627574746F6E0A0020573A005A39C1
:103290004D332052656164792E005072696E7469F5
:1032A0006E672E2E2E00220A00556E6B6E6F776EA3
:1032B00020636F6D6D616E643A2022005072696EFA
:1032C000742066726F6D204D65646961004D6F7684
:1032D000652025736D6D004D6F766520302E316D44
:1032E0006D004D6F766520316D6D004D6F766520F8
:1032F00031306D6D004D6F76652041786973004502
:1033000078747275646572004D6F7665205A004D51
:103310006F76652059004D6F766520580000000AD1
:103320000B02090C0D0E0807030401000000000049
:10333000000000000000000000000000000000008D
:10334000000000000000000000121110000000004A
:10335000000000000000000000000000000000006D
:1033600000000000002200250028002B002E003164
:1033700000340002010000050108010B01000021DA
:1033800000240027002A002D003000330001010036
:1033900000040107010A01050505050705080808DD
:1033A00008020202020A0A080804040404010101D6
:1033B00001010101010303030303030303040707DE
:1033C000070C0C0C0C0C0C0C0C020202020606067C
:1033D00006060606060B0B0B0B0B0B0B0B01021064
:1033E000202008081020401020408002010201081F
:1033F00004020101020408102040808040201008CF
:103400000402018004020180402010080402010827
:103410000402010102040810204080010204081087
:1034200020408020453A0020593A0020520045456E
:1034300050524F4D20496E697469616C697A6564B8
:103440000A0048617264636F646564204465666164
:10345000756C742053657474696E6773204C6F616A
:103460006465640A003B200020204D363033200084
:1034700020204D34313220530046696C616D656EF9
:10348000742072756E6F75742073656E736F723A07
:103490000020550046696C616D656E74206C6F612B
:1034A000642F756E6C6F6164206C656E67746873F1
:1034B0003A0020204D3835312058005A2D50726F77
:1034C0006265204F66667365740020204D32303986
:1034D0002053004175746F2D526574726163743AA4
:1034E00020533D3020746F2064697361626C652CD9
:1034F000203120746F20696E74657270726574205B
:10350000452D6F6E6C79206D6F7665732061732029
:10351000726574726163742F7265636F7665720091
:1035200020204D3230382053005265636F7665722B
:103530003A20533C6C656E6774683E20463C756E5D
:103540006974732F6D3E0020570020204D323037B4
:10355000205300526574726163743A20533C6C6569
:103560006E6774683E20463C756E6974732F6D3EBD
:10357000205A3C6C6966743E0020204D3431332063
:103580005300506F7765722D4C6F737320526563D3
:103590006F766572793A0020204D3330312050002B
:1035A0005049442073657474696E67733A0020460D
:1035B0000020480020204D3134352053004D6174E7
:1035C000657269616C2068656174757020706172E4
:1035D000616D65746572733A00204A00202047329D
:1035E00039205720490020204D34323020530041EB
:1035F00075746F20426564204C6576656C696E67F2
:103600003A0020204D323036205800486F6D65203A
:103610006F66667365743A0020204D323035204263
:1036200000416476616E6365643A20423C6D696E68
:103630005F7365676D656E745F74696D655F7573E3
:103640003E20533C6D696E5F6665656472617465AA
:103650003E20543C6D696E5F74726176656C5F6686
:10366000656564726174653E20583C6D61785F7871
:103670005F6A65726B3E20593C6D61785F795F6A65
:1036800065726B3E205A3C6D61785F7A5F6A657245
:103690006B3E20453C6D61785F655F6A65726B3E8D
:1036A0000020540020204D3230342050004163630C
:1036B000656C65726174696F6E2028756E697473CC
:1036C0002F7332293A20503C7072696E745F6163C7
:1036D00063656C3E20523C726574726163745F6115
:1036E0006363656C3E20543C74726176656C5F6107
:1036F0006363656C3E0020204D3230312058004D10
:103700006178696D756D20416363656C6572617484
:10371000696F6E2028756E6974732F7332293A00B1
:1037200020204D3230332058004D6178696D756D21
:10373000206665656472617465732028756E6974AE
:10374000732F73293A00537465707320706572206B
:10375000756E69743A0020440020204D32303020CC
:1037600053002044697361626C65640A0046696CA9
:10377000616D656E742073657474696E67733A0069
:1037800020204D3134392043203B20556E6974731D
:1037900020696E2043656C736975730A0020286D7B
:1037A0006D29002020473231202020203B20556EFB
:1037B00069747320696E206D6D000000FA4300008B
:1037C000FA430000A0400000C8420000A0420000F0
:1037D000A0420000C8430000C843B80B0000B80B6B
:1037E00000006400000010270000AF01E900112470
:1037F0001FBECFEFD1E2DEBFCDBF00E00CBF13E0B4
:10380000A0E0B2E0E6EFFFE902E00BBF02C00790E4
:103810000D92AC35B107D9F726E1ACE5B3E001C0B4
:103820001D92AC3FB207E1F71BE1C6EFDBE100E020
:1038300006C021970109802FFE010F94514DC53F0D
:10384000D10780E00807A9F70F94F3350D94E94FED
:103850000C9400002F923F924F925F926F927F9252
:103860008F929F92AF92BF92CF92DF92EF92FF9290
:103870000F931F93CF93DF93CDB7DEB7A7970FB604
:10388000F894DEBF0FBECDBF8FA320912E0F2EA3C5
:1038900011E010932E0F809138078D3409F4D0C3B6
:1038A000843511F40C94A32D873411F00C94CE2D93
:1038B00080913607909137078B31910509F463C1E8
:1038C000F4F488309105D1F14CF497FDB5C3823002
:1038D0009105A4F1049709F412C1AEC38B30910590
:1038E00009F44CC18531910511F40C94D02D0A973F
:1038F00009F0A2C381E00E9464F80C94D02D8A32B2
:10390000910509F4B9C254F48D31910509F465C1EA
:103910000CF453C14E9709F47EC18EC38B359105CB
:1039200009F4F4C18C35910509F4F5C18A35910586
:1039300009F082C310925E0F0C94D02D8091610625
:10394000813011F00C94D02D19821A821B821C82B6
:10395000CE0101965C012FECE22E27E0F22E02E868
:1039600012E033E9C32E32E1D32E912C88E5890D84
:103970000E944BDDF50181935F01882311F10E94C4
:10398000F0DA2B013C01892D0E9403E5882351F0D8
:10399000F8012081318142815381C301B2010F942A
:1039A0005A4D09C0F6012081318142815381C30102
:1039B000B2010F94594DF701608371838283938321
:1039C0000AC0F80180819181A281B381F7018083CF
:1039D0009183A283B3839394F4E0EF0EF11C0C5F08
:1039E0001F4F24E0C20ED11C33E09312BFCF85E4F9
:1039F0000E944BDD8C83882301F10E94F0DA6B0179
:103A00007C0183E00E9403E5882371F020918E02FF
:103A100030918F024091900250919102C701B601FE
:103A20000F945A4D6B017C01C092DB07D092DC07EA
:103A3000E092DD07F092DE0710C080918E02909137
:103A40008F02A0919002B09191028093DB07909336
:103A5000DC07A093DD07B093DE0780916116882311
:103A600081F08091671382FF0CC08C81882349F01C
:103A70008981811103C08A81882319F080E00F9425
:103A8000D11940E050E0BA0186E40E9417A420E07A
:103A900030E0A9010F94DD4E181684F40E94F0DA8C
:103AA00020E030E040E752E40F94DD4D6093750272
:103AB00070937602809377029093780280914016FB
:103AC000882311F40C940B2E85E40E9427DB8823B5
:103AD00011F40C940B2E88E50E9427DB81110C94C5
:103AE0000B2E89E50E9427DB81110C940B2E8AE5B1
:103AF0000E9427DB81110C940B2E0C94D92D80E5AC
:103B00000E944BDD882329F00F94BB016B017C01DF
:103B100003C0C12CD12C760183E50E944BDD8823A4
:103B200061F00E94F0DA20E030E04AE754E40F94BC
:103B3000BC460F94564E6B017C010E9423C08091BD
:103B4000A906811105C060E089ED96E00E94A2A25D
:103B50000F94FE23C60ED71EE81EF91E0F94FE23F7
:103B6000DC01CB018C199D09AE09BF09B7FD02C06C
:103B70000C94D02D80E00E94D032F0CF80E00E94E3
:103B800064F80C94D02D0F94CD1D81110C94D02D80
:103B90008CE0EAEAF2E0DE01119601900D928A953E
:103BA000E1F760E070E080E50E949BEBBE016F5F93
:103BB0007F4F0E94FD9D0C94D02D80912C0F87701B
:103BC000873011F00C94362E60E08FE40E9458DDAF
:103BD00081110C94D02D0C94362E0F94FE236093FB
:103BE000AE167093AF168093B0169093B1160F94E3
:103BF000CD1D81110C94D02D8091630F882311F479
:103C00000C94A62E60E08FE40E9458DD81110C9484
:103C1000D02D0C94A62E2091200F3091210F409191
:103C2000220F5091230F6091820270918302809144
:103C30008402909185020F945A4DAB01BC0188E536
:103C40000E9417A469837A838B839C832091240F1D
:103C50003091250F4091260F5091270F60918602D9
:103C60007091870280918802909189020F945A4D39
:103C7000AB01BC0189E50E9417A46D837E838F830D
:103C80009887BE016B5F7F4FCE0101960F9436027D
:103C9000882311F40C94D02D80E00E948EFB0E94AA
:103CA00056C861E085E40E9458DD01E021E0482F1C
:103CB000BE016B5F7F4FCE0101960F94851E6B0195
:103CC0007C019B01AC010F945B4F811119C04981AC
:103CD0005A816B817C8182E292E30E94D3FF4D8105
:103CE0005E816F8178858DE192E30E94D3FFB701F9
:103CF000A60188E192E30E94D3FF8AE00E94A431EA
:103D00000E943DC80E9422990C94D02D8FE0809390
:103D10005E0F0C94D02D80913507882349F18930AE
:103D200009F0A6C08DEEA82E82E0B82E92E8E92E0A
:103D300092E0F92ED12C00E010E0F50181915F01B5
:103D40000E944BDD882369F00E94F0DAF70160835E
:103D5000718382839383133011F401E002C0DD2468
:103D6000D3941F5FF4E0EF0EF11C143031F775C0EF
:103D7000BDEE2B2EB2E03B2E14E7E12E1FE0F12E1C
:103D800022E832E03DA32CA303E9C02E02E1D02EAD
:103D900000E010E0F10181911F010E944BDD8823BA
:103DA00009F44AC00E94F0DA2B013C01133049F0BB
:103DB000F60120813181428153810F94594D2B01AD
:103DC0003C01ECA1FDA12081318142815381C301DD
:103DD000B2010F94594D4B015C012DEB37E346E8DE
:103DE00055EB0F94DD4E87FD0AC02DEB37E346E817
:103DF00055E3C501B4010F9456461816ECF4133080
:103E000051F440928E0250928F0260929002709212
:103E1000910201E011C0A5019401F7016081718157
:103E2000828193810F945A4DF7016083718382835D
:103E30009383812F0E94A1C41F5FF4E0EF0EF11C59
:103E40002CA13DA12C5F3F4F3DA32CA334E0C30E1A
:103E5000D11C143009F09ECF05C0DD2019F00E945E
:103E6000209906C0002321F08EE892E00E94B8C29B
:103E70000E9422990C94D02D80916106813011F01E
:103E80000C94D02D89E40E944BDDE82E882321F08C
:103E90000E94ECDA082F01C000E08AE40E944BDDAA
:103EA000F82E882321F00E94ECDA182F01C010E0D0
:103EB000EE2011F0043020F4FF2041F0143030F0F7
:103EC00082EE96E00E9412FF0C94D02D80E1E2E891
:103ED000F2E0AFECB7E001900D928A95E1F7EE20A9
:103EE00019F1602F000F770B880B990B0F945D462B
:103EF0002091301630913116409132165091331680
:103F00000F94BC462091190430911A0440911B046F
:103F100050911C040F945A4D6093CF077093D007B3
:103F20008093D1079093D207FF2019F1612F110FD1
:103F3000770B880B990B0F945D46209134163091C6
:103F4000351640913616509137160F94BC46209185
:103F50001D0430911E0440911F04509120040F94C1
:103F60005A4D6093D3077093D4078093D5079093ED
:103F7000D60760E080E50E9458DD8823C1F1EE207D
:103F8000D1F02091200F3091210F4091220F5091BC
:103F9000230F6091CF077091D0078091D107909146
:103FA000D2070F94594D6093CF077093D007809339
:103FB000D1079093D207FF20D1F02091240F3091A8
:103FC000250F4091260F5091270F6091D3077091D4
:103FD000D4078091D5079091D6070F94594D6093DF
:103FE000D3077093D4078093D5079093D60740E00A
:103FF00050E0BA0186E40E9417A46B017C0120E026
:1040000030E0A9010F94DD4E18164CF420E030E0AA
:1040100040E752E4C701B6010F94DD4D03C060E0F4
:1040200070E0CB0169837A838B839C83CE010196F8
:104030000E9475C80C94D02D0F94EE1A0C94D02DBC
:1040400080913607909137078139910509F4EEC7C1
:104050000CF0FAC08335910509F40CC60CF082C04F
:104060008A31910509F41FC3BCF58431910509F427
:1040700072C27CF48131910509F459C22CF4029783
:1040800008F41DC20C94A02D429709F4FAC50C94B3
:10409000A02D8731910509F493C294F485319105DF
:1040A00009F48AC2469711F00C94A02D0E94F4EFF7
:1040B00080916713877F8062809367130C94D02D63
:1040C0008831910509F491C2499711F00C94A02D03
:1040D0000E94C1EA0C94D02D8032910509F45BC393
:1040E000F4F48D31910509F43FC384F48B319105CB
:1040F00009F4E7C24C9711F00C94A02D809133077E
:10410000909134070E9459F10C94D02D8E31910575
:1041100009F431C34F9709F467C30C94A02D8D3473
:10412000910509F410C46CF48B34910509F407C4AB
:104130008C34910511F00C94A02D0E949D9A0C9442
:10414000D02D8135910509F47FC58235910511F097
:104150000C94A02D80915E0F8F7D806180935E0F07
:104160000C94D02D8F36910509F4A4C474F58936CA
:10417000910509F42FC484F48535910509F4B7C578
:104180000CF47FC58C35910509F4D4C588369105AA
:1041900009F4DDC30C94A02D8C36910509F4CFC42D
:1041A00054F48A36910509F429C48B36910509F433
:1041B00063C40C94A02D8D36910509F4E9C38E36A5
:1041C000910509F464C40C94A02D8637910509F477
:1041D000E8C6CCF48237910509F44AC654F4803716
:1041E000910509F4B2C48137910509F4BBC40C945C
:1041F000A02D8337910509F442C68537910509F44E
:10420000C0C60C94A02D8937910509F408C794F411
:104210008737910509F400C78837910511F00C9490
:10422000A02D81E080938D0480938C040E94059AD8
:104230000C94D02D8D37910509F403C58C38910568
:1042400009F4B5C40C94A02D8039E1E09E0711F467
:104250000C94A62B0CF085C08D3C910511F40C94A8
:104260009229BCF5873A910509F483C7C4F4833ACF
:10427000910509F44FC734F48B39910509F4BBC497
:104280000C94A02D843A910509F460C7863A9105F3
:1042900011F00C94A02D0E9495EC0C94D02D893C2B
:1042A000910509F4AEC754F48E3B910509F4A0C4FE
:1042B000883C910509F460C70C94A02D8B3C9105B6
:1042C00009F4E0C78C3C910511F40C9461290C941D
:1042D000A02D8C3D910511F40C944E2A04F5803DDF
:1042E000910511F40C94F72964F48E3C910511F4B6
:1042F0000C9495298F3C910511F40C94B3290C94DE
:10430000A02D813D910511F40C94412A833D910526
:1043100011F00C94A02D0F9498000C94D02D8C3299
:1043200021E0920711F40C94112B64F48D3D91055A
:1043300011F40C94752A8232914011F40C94CA2A1B
:104340000C94A02D8D32F1E09F0711F40C94262BD4
:104350008F32914011F00C94A02D0E942EA40C9449
:10436000D02D873F31E0930711F40C94AE2C0CF064
:104370004FC0843AF1E09F0711F40C94D52B2CF533
:104380008A3931E0930709F4E9C394F48139F1E003
:104390009F0711F40C94A92B8239914011F00C94D1
:1043A000A02D80E00E94E8750E9422990C94D02DE7
:1043B0008C3931E0930711F40C94AF2B8D39914077
:1043C00011F40C94632D0C94A02D843FF1E09F0711
:1043D00011F40C94A82C6CF4853A31E0930711F495
:1043E0000C94D82B8C3A914011F40C944B2C0C94D7
:1043F000A02D853FF1E09F0711F40C94AB2C863F74
:10440000914011F00C94A02D0F94012A0C94D02D02
:104410008E3B32E0930711F40C944F2D1CF5883538
:10442000F2E09F0711F40C94D42C6CF4883F31E037
:10443000930711F40C94B62C8C30924011F40C9428
:10444000C72C0C94A02D8B35F2E09F0711F40C942F
:10445000D72C8D3B924011F00C94A02D0E945EE869
:104460000C94D02D873E33E0930711F40C94552D16
:10447000CCF48335F3E09F0711F40C94522D803A6D
:10448000934011F00C94A02D209133073091340704
:1044900090916713926090936713C9010E9459F13C
:1044A0000C94D02D883E33E0930711F40C947D2DAD
:1044B000893E934011F40C94802D0C94A02D80E53E
:1044C0000E944BDD882329F00F94BB016B017C0116
:1044D00003C0C12CD12C760183E50E944BDD8823DB
:1044E00061F00E94F0DA20E030E04AE754E40F94F3
:1044F000BC460F94564E6B017C010E9423C08091F4
:10450000330790913407009721F061E00E9438A3AF
:1045100005C060E08BEF96E00E94A2A240E0C701D8
:10452000B6010E9453380F943F1B0C94D02D8091FC
:10453000390784FF02C00C94A92E80913B0787FFA6
:1045400002C00C94A92E80913C07837011F00C944A
:10455000A92E0C94C62E8091671383FF25C086E296
:1045600097E00E9412FF8091671383FF17C086E8CF
:1045700093E10E9418888BE1E6E8F3E1DE011196F1
:1045800001900D928A95E1F760E070E0CE0101960E
:104590000E945AF4CE0101960E9485DD87E197E0E2
:1045A0000E9412FF0C94D02D0F94080087E397E02F
:1045B0000E9412FF0C94D02D0E94F5F30C94D02D84
:1045C000E0913307F09134078081882329F080320D
:1045D00009F410823196F8CF60E080913307909112
:1045E00034070E94A1F10C94D02D83E50E944BDD8D
:1045F000882321F00E94B8DA0E9445AA84E50E942F
:104600004BDD8823A9F00E94B8DA6B017C010E947F
:10461000489AC092DF06D092E006E092E106F0925E
:10462000E206CD28CE28CF2819F081E08093570FDD
:104630008091FB0D8823F9F080E090E0A8E4B2E4DB
:1046400088A399A3AAA3BBA31C8E1D8E1E8E1F8EAA
:1046500019821A821B821C8200E010E020E0AE0169
:10466000405E5F4FBE01645E7F4FCE0101960E94A7
:104670002CDE0C94D02D0E94E930882381F00E941A
:1046800005F00E94639A85EF9FE00E94AAEF1092C6
:104690003D0710923E0710923F07109240070F947B
:1046A0003F1B0C94D02D8091671383FD02C00C94A6
:1046B000D02D83E50E944BDD81110C94D52E0C94F6
:1046C000D02D83E40E9427DB882319F18BE497E047
:1046D0000E9412FF8091CD14882391F0BE016F5F7C
:1046E0007F4F8AEC94E10E94E4878E010F5F1F4F99
:1046F000F80181918F01882339F00E94A431F8CF0D
:1047000081E497E00E9412FF8AE00E94A4310C9499
:10471000D02D8091671382FF21C08AE597E00E9427
:1047200012FF6091631370916413809165139091EF
:1047300066134AE00E94AB318FE20E94A43160917F
:104740005F137091601380916113909162134AE03E
:104750000E94AB310E94A9320C94D02D8CE697E0D8
:104760000E9412FF0C94D02D809167138E7F80934E
:1047700067130C94D02D8091671383FD02C00C94B5
:10478000D02D0F94D71A80913307909134070E944F
:104790007FF30C94D02D8091671382FD0E9423C07B
:1047A0008091671383FD02C00C94D02D60E080E5FA
:1047B0000E9458DD182F682F80913307909134079D
:1047C0000E94A1F183E50E944BDD882321F00E9425
:1047D000B8DA0E9445AA0E9405F011110C94D02D60
:1047E0000E94639A0C94D02D0E94149A7B018C0134
:1047F00020E831E541E050E00F94AC4CC9016DE692
:1048000071E00F94294D4B015C01C801B70120E113
:104810003EE040E050E00F94AC4CCA01B90128E101
:1048200030E040E050E00F94AC4C762E672EC62E60
:10483000D72EACE32A2E312C412C512CC801B701C4
:10484000A20191010F94AC4CF62EE72ECA01B901DA
:10485000A20191010F94AC4CCB018E010F5F1F4F51
:104860008114910499F0EF92FF927F936F936F926E
:104870007F92BF92AF929F928F928DE797E09F9326
:104880008F931F930F930F94EE4513C0A114B1049F
:10489000B1F0EF92FF927F936F936F927F92BF92EE
:1048A000AF9281E897E09F938F931F930F930F949C
:1048B000EE450FB6F894DEBF0FBECDBF30C0CD2899
:1048C00079F0EF92FF927F936F936F927F9285E8DA
:1048D00097E09F938F931F930F930F94EE45E9CF2B
:1048E000892B69F0EF92FF927F936F9389E897E0AD
:1048F0009F938F931F930F930F94EE45DACFEF9210
:10490000FF928DE897E09F938F931F930F930F94DF
:10491000EE450F900F900F900F900F900F9060E06A
:10492000C8010E9438A30F940800B80181E997E0FC
:104930000E94F1FF8AE00E94A4310C94D02D0E94C5
:10494000639A0C94D02D0E94B29A0C94D02D809131
:10495000980D83FF02C00C94D02D89E40E944BDD9A
:10496000882311F40C94DA2E0E94C8DA90E018160D
:10497000190614F481E090E026E0289FF001299FB9
:10498000F00D1124EE59F94E808191810C94E52EA1
:104990008091980D83FF02C00C94D02D89E40E9471
:1049A0004BDD882311F40C94EC2E0E94C8DA90E0C1
:1049B0001816190614F481E090E026E0289FF00113
:1049C000299FF00D1124EE59F94E8081918110E05C
:1049D0000C94FD2E0E94DAE4182F87FD0AC085EAA8
:1049E0009EE10E9412FF812F0E9436788AE00E9489
:1049F000A4313EA130932E0F0C94743060E080E51A
:104A00000F94F60381110C94D02D81E40E9427DBD2
:104A1000882329F060912E08062F10E002C00FEFC6
:104A200010E089E40E944BDD882399F00E94C8DAE7
:104A300090E01816190614F481E090E026E0289F13
:104A4000F001299FF00D1124EE59F94E04811581D2
:104A500008C083E50E944BDD882319F00E94B8DA74
:104A60008B01B8010F3F110519F010F06FEF70E0E6
:104A700060932E080C94D02D60E080E50F94F6032F
:104A800081110C94D02D10922E080C94D02D8EE410
:104A90000E944BDD882311F40C94D02D0E94B8DACB
:104AA0006093C5077093C6078093C7079093C807A4
:104AB0000C94D02D83E50E9427DB882331F060E041
:104AC00083E50F94F6038093980D0F94080087EA0E
:104AD00097E00E9412FF8091980D882369F1F6E11A
:104AE000EF2EFBE0FF2E00E010E020E08091980D1B
:104AF00090E0A0E0B0E0002E04C0B695A795979591
:104B000087950A94D2F780FF0EC0DD24D394D20E8D
:104B1000222319F08CE20E94A431F701859194912F
:104B20000E9412FF2D2D0F5F1F4F82E0E80EF11C37
:104B300005301105D9F6E8CD83EA97E0E3CD109270
:104B40002D0F109273020C94D02D41E060E070E0C4
:104B50008EEA97E00F940C000C94D02D0E94C43084
:104B60000C94D02D83E50E944BDD882381F00E94B8
:104B7000C8DA282F30E02D33310524F48093000269
:104B80000C94D02D8CE3809300020C94D02D0F94C4
:104B900008004091000250E060E070E08CEB97E08C
:104BA0000E94B5FF8AE00E94A4310C94D02D809120
:104BB000980D83FF02C00C94D02D89E40E944BDD38
:104BC000882311F40C943E2F0E94C8DA90E0181646
:104BD000190614F481E090E026E0289FF001299F57
:104BE000F00D1124EE59F94E628173810C94482F17
:104BF0000E944FA8D5C783E50E944BDD882309F4A6
:104C0000CFC70E94C8DA182F90E0CD970CF01CE3B4
:104C1000109361030F94FE236B017C01212F30E080
:104C2000A8EEB3E00F94004DC60ED71EE81EF91E85
:104C3000C0925D03D0925E03E0925F03F092600346
:104C4000AFC70E94C1EAACC70E94F9780E94B29A2D
:104C50000E9434C00E940D3168EE73E080E090E065
:104C60000E94EEFE0E94103160E083EC97E00E940B
:104C7000A2A296C780915E0F8F7E806280935E0FA6
:104C80008FC783E50E944BDD8823E9F00F94FE2354
:104C90006093AE167093AF168093B0169093B116D2
:104CA0000E94F0DA20E030E04AE754E40F94BC467A
:104CB0000F94564E60930102709302028093030298
:104CC000909304026DC78091390784FF02C00C9451
:104CD000592F80913B0787FF02C00C94592F809178
:104CE0003C07837011F00C94592F0C948A2F83E5A4
:104CF0000E9427DB882309F453C70F94FE23609397
:104D0000AE167093AF168093B0169093B1160E94B2
:104D1000F0DA20E030E04AE754E40F94BC460F9408
:104D2000564E609362037093630380936403909381
:104D3000650336C70E94DAE487FD32C790913907D0
:104D400094FD04C090913B0797FF0AC07DEEC72EEB
:104D500072E0D72EE9E9EE2EEDE0FE2E10E009C05C
:104D600090913C07937091F7682F81E00F94800138
:104D700017C7F60181916F010E944BDD882309F46A
:104D80006DC0133009F063C00E94F0DA4B015C0182
:104D900020E030E040EA51E40F94564687FF4EC0D1
:104DA000A50194016091B90D7091BA0D8091BB0D70
:104DB0009091BC0D0F94DD4D2B013C019B01AC018A
:104DC0006091120870911308809114089091150851
:104DD0000F94BC46609312087093130880931408D4
:104DE00090931508A30192016091C90D7091CA0DAD
:104DF0008091CB0D9091CC0D0F94BC466093C90D62
:104E00007093CA0D8093CB0D9093CC0D60912208C6
:104E10007091230880912408909125080F945B4697
:104E2000A30192010F94BC460F94564E6093220842
:104E30007093230880932408909325088092B90DDD
:104E40009092BA0DA092BB0DB092BC0D07C00E940B
:104E5000F0DAF701648B758B868B978B1F5FF4E01C
:104E6000EF0EF11C143009F084CF0E94FFBF98C6EA
:104E70000F94352684EF92E10E94BB7F91C688E1B2
:104E800099E00E9412FF60E088E099E00E9420AE65
:104E900060E083EF98E00E9420AE61E08EED93E247
:104EA0000E9420AE61E088EE98E00E9420AE61E0B2
:104EB00088ED98E00E9420AE60E08FEC98E00E94C0
:104EC00020AE61E085EC98E00E9420AE61E08BEBC3
:104ED00098E00E9420AE61E084EB98E00E9420AE52
:104EE00061E08CEA98E00E9420AE61E08EE998E0F3
:104EF0000E9420AE60E080E998E00E9420AE60E071
:104F000081E898E00E9420AE60E083E798E00E948C
:104F100020AE60E08DE598E00E9420AE60E08CE479
:104F200098E00E9420AE60E08DE398E00E9420AE01
:104F300061E086E398E00E9420AE60E081E298E0C4
:104F40000E9420AE60E083E198E00E9420AE60E025
:104F500080E098E00E9420AE60E083EF97E00E943E
:104F600020AE60E08EEE97E00E9420AE61E081EE20
:104F700097E00E9420AE60E08DEC97E00E9420AEAA
:104F80000FC68091330790913407009709F487CBBF
:104F9000FC012081222309F482CB60E00E9438A327
:104FA000FFC5009133071091340794E0F12C40E0E5
:104FB000915029F1F8018081282F2B7F213421F491
:104FC00021812133E1F408C08035C9F4F8018181E1
:104FD00080538A3048F013C0813421F0853421F4A5
:104FE00041E002C0FF24F39498012E5F3F4F8901F6
:104FF0002F5F3F4FF80180818032C9F3D9CF411133
:105000000F940800FF2021F08DEE99E00E9412FF1E
:10501000C8010E94AF32C4C50E94D399C1C5109285
:105020008D0410928C040E94059ABAC560E070E06D
:1050300083E50F94E703823038F00F94040081EF8A
:1050400099E00E9412FFACC58C01112788E40E94F0
:105050004BDD8823E1F00E94ECDA8A3A910544F0B6
:105060000E94ECDA8530914034F40E94ECDA05C0FD
:105070008AEA90E002C084E091E026E0209FF001FF
:10508000219FF00D1124EE59F94E9183808382E423
:105090000E944BDD8823D9F00E94ECDA97FD08C00E
:1050A0000E94ECDA8937910534F40E94ECDA05C0ED
:1050B00080E090E002C088E790E026E0209FF001C9
:1050C000219FF00D1124EE59F94E9383828386E4DB
:1050D0000E944BDD882309F463C50E94ECDA97FD3A
:1050E00009C00E94ECDA8F3F910509F034F40E9468
:1050F000ECDA05C080E090E002C08FEF90E026E09F
:10510000209FF001219FF00D1124EE59F94E958357
:10511000848346C560E070E083E50F94E7038C016B
:10512000833091056CF460E070E080E50F94E70354
:105130001127F801EF51FC4F80830E94C6E330C570
:1051400041970CF42DC50E945EE42AC56FEF7FEFF6
:1051500083E50F94E70397FD07C0803191050CF0BC
:105160001FC50E9407F81CC5809175080E9407F8AA
:1051700017C50E94FAEB14C50E94DAE4182F87FDC8
:105180000FC50091730F84E40E944BDD882309F45E
:10519000C4C60E94F0DA6B017C0120E030E0A90176
:1051A0000F945646882339F124E01202F0011124AD
:1051B000E159F04FC082D182E282F38220E030E0F8
:1051C000A90160916F0F7091700F8091710F909194
:1051D000720F0F94564681110CC080E090E0A0EE53
:1051E000BFE380936F0F9093700FA093710FB093F4
:1051F000720F01E092C680E08093730F0E948CBE14
:10520000CFC40E94DAE487FDCBC45DEEC52E52E028
:10521000D52E69E9E62E6DE0F62E10E0F6018191BB
:105220006F010E9427DB882331F10E94F0DA6C8F36
:105230007D8F8E8F9F8F80E1E6EBF2E0DE0111968D
:1052400001900D928A95E1F79E012F5F3F4F43EF4A
:1052500053E2612FCE014C960E942ABF6C8D7D8D4A
:105260008E8D9F8D0F94564EF701608371838283DC
:1052700093830E94B8BF1F5FF4E0EF0EF11C14305F
:1052800069F68EC40E94DAE487FD8AC44DEEE42EEE
:1052900042E0F42E09E91DE0F70181917F010E94AF
:1052A00027DB882339F00E94F0DAF80164A375A3A4
:1052B00086A397A30C5F1F4FFDE0093A1F0761F714
:1052C0006FC480913A0787FD2DC680913B078E7091
:1052D00009F028C64091CD0D5091CE0D6091CF0DB3
:1052E0007091D00D83E19AE00E94D3FF4091D10DDF
:1052F0005091D20D6091D30D7091D40D8BE294E357
:105300000E94D3FF4091D50D5091D60D6091D70DDD
:105310007091D80D81EA96E30E94D3FF8AE00E9443
:10532000A4313EC40F94CB013BC430E8E32E3FE0F0
:10533000F32E10E088E5810F0E9427DB882351F0CF
:105340000E94F0DAF7016083718382839383812F57
:105350000E94A1C41F5FF4E0EF0EF11C133051F75F
:105360000E9422991DC483E50E9427DB882351F007
:105370000E94F0DA609341167093421680934316B0
:105380009093441686E40E9427DB882381F00E94D4
:10539000F0DA20E030E040E752E40F94DD4D609316
:1053A00045167093461680934716909348168AE5E3
:1053B0000E9427DB882351F00E94F0DA609349169F
:1053C00070934A1680934B1690934C1687E50E9473
:1053D00027DB882309F4E4C30E94F0DA60935516B2
:1053E000709356168093571690935816D9C383E539
:1053F0000E9427DB882351F00E94F0DA60934D165B
:1054000070934E1680934F169093501686E40E9428
:1054100027DB882381F00E94F0DA20E030E040E7CB
:1054200052E40F94DD4D60935116709352168093A1
:1054300053169093541682E50E9427DB882381F04F
:105440000E94F0DA20E030E040E752E40F94DD4DB6
:1054500060935D1670935E1680935F16909360164E
:1054600087E50E9427DB882309F49AC30E94F0DABB
:105470006093591670935A1680935B1690935C163E
:105480008FC383E50E9427DB882309F489C30E9428
:10549000DCDA809340160E946DE482C383E50E94AB
:1054A0004BDD882331F00E94ECDA90933302809335
:1054B00032028091390790913A07A0913B07B09151
:1054C0003C07892B8A2B8B2B09F06AC3609132022F
:1054D0007091330283E29AE00E94E4FF85E20E9429
:1054E000A4318AE00E94A4315BC30E94DAE4F82E62
:1054F00087FD56C383E50E944BDD0F2D0F2C000C5A
:10550000110B882361F10E94ECDAF801EE0FFF1F06
:10551000EC5CFD4F91838083000F111F000F111F62
:105520009801285A3D4F7901BC01990F880B990BBE
:105530000F945D462AE037ED43E25CE30F94BC46EE
:10554000F801E152F84F20813181428153810F945B
:10555000BC46F701608371838283938321C30F94D8
:10556000080085E40E94A43180E38F0D0E94A431DD
:10557000000F111FF801EC5CFD4F6081718187E223
:105580009AE00E94E4FF85E20E94A4318AE00E9432
:10559000A43106C38AE50E944BDD811105C083E575
:1055A0000E944BDD882331F10E94F0DA20E030E0E8
:1055B00040E050EC0F94564687FDFFC40E94F0DA9D
:1055C00020E030E040E050E40F94DD4E18160CF47B
:1055D000EFC40E94F0DA2091B50D3091B60D4091E4
:1055E000B70D5091B80D0F94BC460F944F4ECB01A0
:1055F0000F947F3280913B0787FDE4C480913C0784
:10560000837009F0DFC40F9408006091B2167091A6
:10561000B3168FE094E10E94E4FF8AE00E94A43177
:10562000BFC264E071E083E50E949BEB8C0168EEF1
:1056300073E080E50E949BEB8938F3E19F0710F04F
:1056400088E893E1B8010E9475A2AAC260E085E4EF
:105650000F94F603811173C080E50E9427DB882335
:1056600051F00E94F0DA6093D1167093D2168093B5
:10567000D3169093D41689E40E9427DB882381F007
:105680000E94F0DA2CEA35EC47E25EE30F94BC4668
:105690006093D5167093D6168093D7169093D8162C
:1056A00084E40E9427DB882381F00E94F0DA2CEA50
:1056B00035EC47E25EE30F94DD4D6093D9167093AD
:1056C000DA168093DB169093DC160F940800409155
:1056D000D1165091D2166091D3167091D41687E3EB
:1056E0009AE00E94D3FF2CEA35EC47E25EE360913A
:1056F000D5167091D6168091D7169091D8160F9422
:10570000DD4DAB01BC0183E39AE00E94D3FF2CEA9C
:1057100035EC47E25EE36091D9167091DA1680911C
:10572000DB169091DC160F94BC46AB01BC018FE2F6
:105730009AE00E94D3FF8AE00E94A43131C20F9404
:1057400004008BE39AE00E9412FF2AC20E9423C049
:1057500027C281E00E94E8750E94229921C28091AF
:10576000390783FD35C480913B07867009F030C44A
:105770000F9408008DE69AE00E9412FF80916A0261
:105780000E94ACFF8AE00E94A4314091980250919F
:10579000990260919A0270919B028DE49AE00E94B6
:1057A000D3FF8AE00E94A431FBC10E9475DBF8C1DF
:1057B0006FEF7FEF89E40F94E703082F6FEF7FEF20
:1057C0008AE40F94E703182F8AE50E944BDD8111CC
:1057D00008C081E50E944BDDD82E882309F41DC442
:1057E00001C0D12CC02E81E0800F853008F04CC064
:1057F000912E81E0810F853008F046C00E94F0DADA
:105800002B013C01F02E07FDF12C07FF02C0F3E055
:10581000CF2E812E17FD812C17FF02C0E3E09E2EB4
:10582000CF1408F4BDC1E82C24E0F29E50011124ED
:105830009E1440F10E2D10E0DD2071F0F501E00F17
:10584000F11FEE0FFF1FEE0FFF1FE259F94E2081EF
:1058500031814281538103C020E030E0A9010A0D6B
:105860001B1D000F111F000F111F0259194EC301FC
:10587000B2010F945A4DF801608371838283938340
:10588000E394D6CFF394CCCF0F94040082EE96E04D
:105890000E9412FF85C10F94CD1D811181C106EEBA
:1058A00017E122E832E03DA32CA3CE0101961C01B2
:1058B00042E6C42E44E2D42E7C01F8016591759134
:1058C00085919491ECA1FDA181909190A190B190CE
:1058D000FDA3ECA3A50194010F94594D2B013C01AC
:1058E000F701608371838283938320E030E040EA94
:1058F00051EC0F94DD4E87FD0AC020E030E040EA15
:1059000051E4C301B2010F94564618162CF4F60167
:10591000849118160CF488C3F70181909190A1909E
:10592000B1907F0120E030E040EA51ECC501B401C4
:105930000F94DD4E87FDB7C320E030E040EA51E42C
:10594000C501B4010F94564618160CF077C3ABC3CB
:105950000E94D96A25C10F94892B22C161E083E599
:105960000E9458DD81270F949F2B1AC181E08093FC
:105970002B160E94D56F10922B16882309F410C1A4
:105980000F9408008AED9AE00E9412FF09C18091ED
:10599000671382FF04C080648093671301C183FF93
:1059A000FFC00F94D71AFCC00E94AFE9F9C00E9453
:1059B000DAE4082F87FDF4C085E50E9427DB882301
:1059C000A9F1E02E002E000CFF080E94F0DA4B0136
:1059D0005C0120E030E0A9010F94DD4E87FF04C098
:1059E000B7FAB094B7F8B094C70123E0880F991FB5
:1059F0002A95E1F79C01285C394E7901F9018082F2
:105A00009182A282B38220E030E048E453E4C501F1
:105A1000B4010F94DD4E18164CF480E090E0A8E439
:105A2000B3E4F70180839183A283B3838CE40E9463
:105A300027DB882309F4B4C0002E000C110B0E9450
:105A4000F0DA6B017C0120E030E0A9010F94DD4E1B
:105A500087FF04C0F7FAF094F7F8F09420E030E004
:105A600048E453E4C701B6010F94DD4E980193E07A
:105A7000220F331F9A95E1F7F901E85CF94E1816E9
:105A80002CF0C482D582E682F7828AC080E090E062
:105A9000A8E4B3E484839583A683B78381C00E947E
:105AA0003BE77EC00E9453AB7BC081E080936106E0
:105AB0001092D40660E083E50E9458DD811170C029
:105AC0000E949EAA6DC083E50E9427DB882339F0DF
:105AD0000E94DCDA809361160E9475DD61C00F942C
